:0A0C200050617373776F72643A003D
:100A1D00120BF17BFF7A0C79207D017F01120B65A2
:100A2D001208008F22E52260F7E4F523F524C3E5D3
:100A3D00249404E5236480948050E5E522940A50C3
:100A4D0014E52275F00A84AFF0E52425E02400F8C2
:100A5D00760008A6070524E52470020523FD25E090
:100A6D002400F8E6FA08E6FB85240C7F02120BA69B
:0A0A7D000524E52470B8052380B4B9
:040BC300EF4E60137E
:100BC700750902750AEFD50AFDD509FAEF1F70EC12
:010BD7001EFF
:030BD80080E9228F
:060C0500C2A58F80D2A7FA
:080C0B007F027EEFDEFEDFFC3C
:010C130022BE
:0A0C2A00C2A6120C05C2A7020C0BB3
:100B8800CFCDCFCECCCE1209C87C007D0A1209C8C1
:040B9800ED2430FF19
:0A0B9C00D2A6120C05C2A7020C0B32
:100BDB00AE07BE0104ED148006BE0209ED243F44AE
:060BEB0080FF120C2A221B
:100BF1007F38120C2A7F0C120C2A7F06120C2A7FD6
:040C010001020C2AB6
:0A0C3400AC03120BDBAF04020B9CB3
:060B65008B088A09890AD1
:100B6B00120BDBE4FDAB08AA09A90A8D8275830081
:0C0B7B00120989FF6006120B9C0D80E936
:010B8700224B
:0C0B32007F0AEA24FFFDE434FFFC7E0093
:080B3E008E0D8F0E8C0F8D103F
:100B46007F017E00E4FBEBC39510E50F6480F8742B
:0E0B56008098500AAC0DAD0E1209B60B80E867
:010B6400226E
:040BA6008A0A8B0B21
:100BAA00120BDBAA0CEAD39400400D120B32AC0AEA
:080BBA00AD0B120B881A80ED4F
:010BC2002210
:100A8700120BDBC3EA64809480400B7F2B120B9C14
:100A97008A168B17800E7F2D120B9CC3E49BF517CC
:100AA700E49AF516AA15EAD39400400D120B32AC5E
:090AB70016AD17120B881A80ED30
:010AC0002213
:040AC1008A1A8B1BE7
:100AC500120BDBAA1CEAD3940040297F10120B34C9
:100AD500AC1AAD1BCFCDCFCECCCE1209C8EF540F7B
:100AE500FEC3940AEE5004243080022437FF120B13
:040AF5009C1A80D1F6
:010AF90022DA
:040AFA008A1F8B20A4
:100AFE00120BDBAA21EAD394004028EA24FFFDE47E
:100B0E0034FFFC7F027E00120B3EAC1FAD20CFCD1A
:100B1E00CFCECCCE1209C8EF54012430FF120B9C5D
:030B2E001A80D258
:010B310022A1
:10080000E4F5087590FFC2932097137F14FE120B36
:10081000C33097FD7F147E00120BC375080120962C
:10082000147F147E00120BC33096FD7F147E0012DD
:100830000BC37508052095147F147E00120BC3307E
:1008400095FD7F147E00120BC37508092094147F58
:10085000147E00120BC33094FD7F147E00120BC374
:1008600075080D7590FFC2922097147F147E0012B8
:100870000BC33097FD7F147E00120BC37508022056
:1008800096147F147E00120BC33096FD7F147E00F9
:10089000120BC37508062095147F147E00120BC33B
:1008A0003095FD7F147E00120BC375080A20941446
:1008B0007F147E00120BC33094FD7F147E00120B58
:1008C000C375080E7590FFC2912097147F147E00A7
:1008D000120BC33097FD7F147E00120BC375080303
:1008E0002096147F147E00120BC33096FD7F147E79
:1008F00000120BC37508072095147F147E00120B9D
:10090000C33095FD7F147E00120BC375080B209435
:10091000147F147E00120BC33094FD7F147E0012EE
:100920000BC375080F7590FFC2902097147F147E3B
:1009300000120BC33097FD7F147E00120BC37508A5
:10094000042096147F147E00120BC33096FD7F1492
:100950007E00120BC37508082095147F147E0012C8
:100960000BC33095FD7F147E00120BC375080C205D
:1009700094147F147E00120BC33094FD7F147E000C
:08098000120BC3750810AF084B
:01098800224C
:03000000020C14DB
:0C0C1400787FE4F6D8FD758124020A1DEB
:10098900BB010CE58229F582E5833AF583E0225023
:1009990006E92582F8E622BBFE06E92582F8E2226D
:0D09A900E58229F582E5833AF583E4932287
:1009B600EF8DF0A4A8F0CF8CF0A428CE8DF0A42E55
:0209C600FE220F
:1009C800BC000BBE0029EF8DF084FFADF022E4CC13
:1009D800F875F008EF2FFFEE33FEEC33FCEE9DECDC
:1009E800984005FCEE9DFE0FD5F0E9E4CEFD22ED22
:1009F800F8F5F0EE8420D21CFEADF075F008EF2F6C
:100A0800FFED33FD4007985006D5F0F222C398FD5C
:050A18000FD5F0EA22F9
:00000001FF
