:1008F200202808FF080808FF00000E15151508003B
:1009020000FF01020000FF010200000E11110E00A3
:0B09120000F9000000000000000000E1
:10088C00E4F532E4F530E53025312408F8E6FD7C5A
:10089C0000AF3012091E0530E530C3940840E7055F
:1008AC0032E532D3941440DBE4F5320531E531D333
:0908BC00942040CFE4F53180CA1C
:04094000EF4E601303
:100944007533027534EFD534FDD533FAEF1F70ECEF
:010954001E84
:0309550080E92214
:05095800C2B6C2B52289
:0208C500AD077D
:1008C700E4FB74807E00A803088006CEA2E713CE5F
:1008D70013D8F8FFEDF582EF558224FF92B4D2B614
:0A08E700C2B60BBB08DCD2B5C2B5E7
:0108F10022E4
:10091E00AA07AF051208C5AF027480A807088002A7
:10092E00C313D8FCF4F5807F017E00120940758058
:02093E00FF2296
:03000000020800F3
:0C080000787FE4F6D8FD758134020847CB
:10080C0002088CE493A3F8E493A34003F68001F26E
:10081C0008DFF48029E493A3F85407240CC8C333ED
:10082C00C4540F4420C8834004F456800146F6DFBC
:10083C00E4800B01020408102040809008F2E47E52
:10084C00019360BCA3FF543F30E509541FFEE493B1
:10085C00A360010ECF54C025E060A840B8E493A378
:10086C00FAE493A3F8E493A3C8C582C8CAC583CAA3
:10087C00F0A3C8C582C8CAC583CADFE9DEE780BE5B
:01091D0000D9
:00000001FF
