:0B0BDE0048656C6C6F776F726C6400F0
:100AFB00120BAF7BFF7A0B79DE7D017F01120B238B
:100B0B001208008F22E52260F7FB7A00750C027D3C
:080B1B00017F02120B6480E867
:040B8100EF4E6013C0
:100B8500750902750AEFD50AFDD509FAEF1F70EC54
:010B95001E41
:030B960080E922D1
:060BC300C2A58F80D2A73D
:080BC9007F027EEFDEFEDFFC7F
:010BD1002201
:0A0BE900C2A6120BC3C2A7020BC97B
:100B4600CFCDCFCECCCE1209C87C007D0A1209C803
:040B5600ED2430FF5B
:0A0B5A00D2A6120BC3C2A7020BC9FA
:100B9900AE07BE0104ED148006BE0209ED243F44F0
:060BA90080FF120BE9229F
:100BAF007F38120BE97F0C120BE97F06120BE97FDE
:040BBF0001020BE93B
:0A0BF300AC03120B99AF04020B5A79
:060B23008B088A09890A13
:100B2900120B99E4FDAB08AA09A90A8D8275830005
:0C0B3900120989FF6006120B5A0D80E9BA
:010B4500228D
:0C0AC8007F0AEA24FFFDE434FFFC7E00FE
:080AD4008E0D8F0E8C0F8D10AA
:100ADC007F017E00E4FBEBC39510E50F6480F87496
:0E0AEC008098500AAC0DAD0E1209B60B80E8D2
:010AFA0022D9
:040B64008A0A8B0B63
:100B6800120B99AA0CEAD39400400D120AC8AC0AD9
:080B7800AD0B120B461A80EDD3
:010B80002252
:100A1D00120B99C3EA64809480400B7F2B120B5A02
:100A2D008A168B17800E7F2D120B5AC3E49BF51778
:100A3D00E49AF516AA15EAD39400400D120AC8AC33
:090A4D0016AD17120B461A80EDDC
:010A5600227D
:040A57008A1A8B1B51
:100A5B00120B99AA1CEAD3940040297F10120ACAE0
:100A6B00AC1AAD1BCFCDCFCECCCE1209C8EF540FE5
:100A7B00FEC3940AEE5004243080022437FF120B7D
:040A8B005A1A80D1A2
:010A8F002244
:040A90008A1F8B200E
:100A9400120B99AA21EAD394004028EA24FFFDE42A
:100AA40034FFFC7F027E00120AD4AC1FAD20CFCDF0
:100AB400CFCECCCE1209C8EF54012430FF120B5A0A
:030AC4001A80D2C3
:010AC700220C
:10080000E4F5087590FFC2932097137F14FE120B36
:10081000813097FD7F147E00120B817508012096B0
:10082000147F147E00120B813096FD7F147E00121F
:100830000B817508052095147F147E00120B813002
:1008400095FD7F147E00120B817508092094147F9A
:10085000147E00120B813094FD7F147E00120B81F8
:1008600075080D7590FFC2922097147F147E0012B8
:100870000B813097FD7F147E00120B8175080220DA
:1008800096147F147E00120B813096FD7F147E003B
:10089000120B817508062095147F147E00120B81BF
:1008A0003095FD7F147E00120B8175080A20941488
:1008B0007F147E00120B813094FD7F147E00120B9A
:1008C0008175080E7590FFC2912097147F147E00E9
:1008D000120B813097FD7F147E00120B8175080387
:1008E0002096147F147E00120B813096FD7F147EBB
:1008F00000120B817508072095147F147E00120BDF
:10090000813095FD7F147E00120B8175080B2094B9
:10091000147F147E00120B813094FD7F147E001230
:100920000B8175080F7590FFC2902097147F147E7D
:1009300000120B813097FD7F147E00120B81750829
:10094000042096147F147E00120B813096FD7F14D4
:100950007E00120B817508082095147F147E00120A
:100960000B813095FD7F147E00120B8175080C20E1
:1009700094147F147E00120B813094FD7F147E004E
:08098000120B81750810AF088D
:01098800224C
:03000000020BD21E
:0C0BD200787FE4F6D8FD758122020AFB52
:10098900BB010CE58229F582E5833AF583E0225023
:1009990006E92582F8E622BBFE06E92582F8E2226D
:0D09A900E58229F582E5833AF583E4932287
:1009B600EF8DF0A4A8F0CF8CF0A428CE8DF0A42E55
:0209C600FE220F
:1009C800BC000BBE0029EF8DF084FFADF022E4CC13
:1009D800F875F008EF2FFFEE33FEEC33FCEE9DECDC
:1009E800984005FCEE9DFE0FD5F0E9E4CEFD22ED22
:1009F800F8F5F0EE8420D21CFEADF075F008EF2F6C
:100A0800FFED33FD4007985006D5F0F222C398FD5C
:050A18000FD5F0EA22F9
:00000001FF
