:100B7C005772697465204F4B0020202020202020C4
:0B0B8C00200052656164204F4B2000E8
:10080000120BC2750C05AB23AA227D017F01120BCE
:1008100042120A518F24E524B401150523E5237003
:10082000020522750C05FBAA227D017F01120B42F5
:10083000E524B40216E523152370021522750C0574
:10084000AB23AA227D017F01120B42E524640370D1
:1008500040FCAD23FF120ADD7F057E00120BADE5E3
:1008600022FD7C007F01120ADD7F057E00120BADA8
:100870007BFF7A0B797C7D017F02120B017FE87E82
:1008800003120BAD7BFF7A0B79857D017F02120B82
:1008900001E52464046003020811FF120A84752232
:1008A000008F237F01120A84EFFEEE4222750C05B1
:1008B000AB23AA227D017F01120B427BFF7A0B79C9
:1008C0008E7D017F02120B017FE87E03120BAD7B50
:0F08D000FF7A0B79857D017F02120B010208115F
:100BAD00EF1FAC0670011E4C600A7D027CEFDCFE6F
:040BBD00DDFC80ECEF
:010BC1002211
:060BD600C2A58F80D2A72A
:080BDC007F027EEFDEFEDFFC6C
:010BE40022EE
:0A0BFE00C2A6120BD6C2A7020BDC40
:100B2400CFCDCFCECCCE12091E7C007D0A12091E79
:040B3400ED2430FF7D
:0A0B3800D2A6120BD6C2A7020BDCF6
:100B9700AE07BE0104ED148006BE0209ED243F44F2
:060BA70080FF120BFE228C
:100BC2007F38120BFE7F0C120BFE7F06120BFE7F8C
:040BD20001020BFE13
:0A0C0800AC03120B97AF04020B3887
:060B01008B088A09890A35
:100B0700120B97E4FDAB08AA09A90A8D8275830029
:0C0B17001208DFFF6006120B380D80E9A9
:010B230022AF
:0C0A1E007F0AEA24FFFDE434FFFC7E00A8
:080A2A008E0D8F0E8C0F8D1054
:100A32007F017E00E4FBEBC39510E50F6480F87440
:0E0A42008098500AAC0DAD0E12090C0B80E826
:010A50002283
:040B42008A0A8B0B85
:100B4600120B97AA0CEAD39400400D120A1EAC0AA7
:080B5600AD0B120B241A80ED17
:010B5E002274
:10097300120B97C3EA64809480400B7F2B120B38D1
:100983008A168B17800E7F2D120B38C3E49BF51745
:10099300E49AF516AA15EAD39400400D120A1EAC88
:0909A30016AD17120B241A80EDA9
:0109AC002228
:0409AD008A1A8B1BFC
:1009B100120B97AA1CEAD3940040297F10120A2037
:1009C100AC1AAD1BCFCDCFCECCCE12091EEF540F3A
:1009D100FEC3940AEE5004243080022437FF120B28
:0409E100381A80D16F
:0109E50022EF
:0409E6008A1F8B20B9
:1009EA00120B97AA21EAD394004028EA24FFFDE4D7
:1009FA0034FFFC7F027E00120A2AAC1FAD20CFCD45
:100A0A00CFCECCCE12091EEF54012430FF120B3880
:030A1A001A80D26D
:010A1D0022B6
:100A510030B1097F147E00120BAD80FE30B0097FEA
:100A6100147E00120BAD80FE30B2097F147E00129D
:100A71000BAD80FE30B3097F147E00120BAD80FEFA
:020A8100AF08BC
:010A83002250
:100ADD008F088C098D0A120C1C7FA0120AB4120B00
:100AED00E5AF08120AB4120BE5AF0A120AB4120BE5
:040AFD00E5020C25DD
:020A84008F08D9
:100A8600120C1C7FA0120AB4120BE5AF08120AB4AE
:100A9600120BE5120C1C7FA1120AB4120BE5120B05
:0D0AA6005F8F097F01120C12120C25AF09A1
:010AB3002220
:090C1C00D2A0D2A1C2A0C2A12203
:070C2500C2A0D2A1D2A0225F
:020AB400AD078C
:100AB600E4FB74807E00A803088006CEA2E713CE6E
:100AC60013D8F8FFEDF582EF558224FF92A0D2A14C
:060AD600C2A10BBB08DC0D
:010ADC0022F7
:100B5F00D2A0E4FED2A130A00D7480A806088002B6
:0C0B6F00C313D8FC4207C2A10EBE08E868
:010B7B002257
:0A0C1200EF24FF92A0D2A1C2A1229C
:0C0BE500E4FFD2A0D2A130A0010FC2A1F9
:010BF10022E1
:03000000020BF2FE
:0C0BF200787FE4F6D8FD7581240208002D
:1008DF00BB010CE58229F582E5833AF583E02250CE
:1008EF0006E92582F8E622BBFE06E92582F8E22218
:0D08FF00E58229F582E5833AF583E4932232
:10090C00EF8DF0A4A8F0CF8CF0A428CE8DF0A42EFF
:02091C00FE22B9
:10091E00BC000BBE0029EF8DF084FFADF022E4CCBD
:10092E00F875F008EF2FFFEE33FEEC33FCEE9DEC86
:10093E00984005FCEE9DFE0FD5F0E9E4CEFD22EDCC
:10094E00F8F5F0EE8420D21CFEADF075F008EF2F16
:10095E00FFED33FD4007985006D5F0F222C398FD07
:05096E000FD5F0EA22A4
:00000001FF
