:040BFF0002220000CE
:10092000120BA1750C05AB23AA227D017F01120BCE
:100930003C120A4B8F24E524B401150523E52370EE
:10094000020522750C05FBAA227D017F01120B3CDA
:10095000E524B402DCE523152370021522750C058D
:0D096000AB23AA227D017F01120B3C80C455
:100B8C00EF1FAC0670011E4C600A7D027CEFDCFE90
:040B9C00DDFC80EC10
:010BA0002232
:060BB500C2A58F80D2A74B
:080BBB007F027EEFDEFEDFFC8D
:010BC300220F
:0A0BD100C2A6120BB5C2A7020BBBAF
:100B1E00CFCDCFCECCCE12083F7C007D0A12083F3F
:040B2E00ED2430FF83
:0A0B3200D2A6120BB5C2A7020BBB3E
:100B7600AE07BE0104ED148006BE0209ED243F4413
:060B860080FF120BD122DA
:100BA1007F38120BD17F0C120BD17F06120BD17F34
:040BB10001020BD161
:0A0BDB00AC03120B76AF04020B32DC
:060AFB008B258A268927E5
:100B0100120B76E4FDAB25AA26A9278D82758300F9
:0C0B1100120800FF6006120B320D80E994
:010B1D0022B5
:0C0A18007F0AEA24FFFDE434FFFC7E00AE
:080A24008E0D8F0E8C0F8D105A
:100A2C007F017E00E4FBEBC39510E50F6480F87446
:0E0A3C008098500AAC0DAD0E12082D0B80E80C
:010A4A002289
:040B3C008A0A8B0B8B
:100B4000120B76AA0CEAD39400400D120A18AC0AD4
:080B5000AD0B120B1E1A80ED23
:010B5800227A
:10096D00120B76C3EA64809480400B7F2B120B32FE
:10097D008A168B17800E7F2D120B32C3E49BF51751
:10098D00E49AF516AA15EAD39400400D120A18AC94
:09099D0016AD17120B1E1A80EDB5
:0109A600222E
:0409A7008A1A8B1B02
:1009AB00120B76AA1CEAD3940040297F10120A1A64
:1009BB00AC1AAD1BCFCDCFCECCCE12083FEF540F20
:1009CB00FEC3940AEE5004243080022437FF120B2E
:0409DB00321A80D17B
:0109DF0022F5
:0409E0008A1F8B20BF
:1009E400120B76AA21EAD394004028EA24FFFDE4FE
:1009F40034FFFC7F027E00120A24AC1FAD20CFCD51
:100A0400CFCECCCE12083FEF54012430FF120B326C
:030A14001A80D273
:010A170022BC
:100A4B0020B1097F147E00120B8C80FE20B0097F31
:100A5B00147E00120B8C80FE20B2097F147E0012D4
:100A6B000B8C80FE20B3097F147E00120B8C80FE52
:020A7B00AF08C2
:010A7D002256
:100AD7008F288C298D2A120BEF7FA0120AAE120BDA
:100AE700C4AF28120AAE120BC4AF2A120AAE120BF9
:040AF700C4020BF832
:020A7E008F2BBC
:100A8000120BEF7FA0120AAE120BC4AF2B120AAEEC
:100A9000120BC4120BEF7FA1120AAE120BC4120B81
:0D0AA000598F2C7F01120BE5120BF8AF2CC3
:010AAD002226
:090BEF00D2A0D2A1C2A0C2A12231
:070BF800C2A0D2A1D2A0228D
:020AAE00AD0792
:100AB000E4FB74807E00A803088006CEA2E713CE74
:100AC00013D8F8FFEDF582EF558224FF92A0D2A152
:060AD000C2A10BBB08DC13
:010AD60022FD
:100B5900D2A0E4FED2A130A00D7480A806088002BC
:0C0B6900C313D8FC4207C2A10EBE08E86E
:010B7500225D
:0A0BE500EF24FF92A0D2A1C2A122CA
:0C0BC400E4FFD2A0D2A130A0010FC2A11A
:010BD0002202
:030000000208945F
:0C089400787FE4F6D8FD75812C0208DBAB
:10080000BB010CE58229F582E5833AF583E02250AD
:1008100006E92582F8E622BBFE06E92582F8E222F7
:0D082000E58229F582E5833AF583E4932211
:10082D00EF8DF0A4A8F0CF8CF0A428CE8DF0A42EDF
:02083D00FE2299
:10083F00BC000BBE0029EF8DF084FFADF022E4CC9D
:10084F00F875F008EF2FFFEE33FEEC33FCEE9DEC66
:10085F00984005FCEE9DFE0FD5F0E9E4CEFD22EDAC
:10086F00F8F5F0EE8420D21CFEADF075F008EF2FF6
:10087F00FFED33FD4007985006D5F0F222C398FDE7
:05088F000FD5F0EA2284
:1008A000020920E493A3F8E493A34003F68001F245
:1008B00008DFF48029E493A3F85407240CC8C33359
:1008C000C4540F4420C8834004F456800146F6DF28
:1008D000E4800B0102040810204080900BFFE47EAE
:1008E000019360BCA3FF543F30E509541FFEE4931D
:1008F000A360010ECF54C025E060A840B8E493A3E4
:10090000FAE493A3F8E493A3C8C582C8CAC583CA0E
:10091000F0A3C8C582C8CAC583CADFE9DEE780BEC6
:010C030000F0
:00000001FF
