:100985001209A31208F98F13E513B40105051553D0
:0E0995001503E515FD7C007F0112088C80E53E
:03000B0002095A8D
:10095A00C0E0C0F0C0D0758A9C758CFF0514E51400
:10096A0075F0648485F014E514C395125004D2908E
:0B097A008002C290D0D0D0F0D0E0325C
:1009BA00EF1FAC0670011E4C600A7D027CEFDCFE64
:0409CA00DDFC80ECE4
:0109CE002206
:1008F900E4F51620B1137F14FE1209BA30B1FD7F59
:10090900147E001209BA75160120B0147F147E00F6
:100919001209BA30B0FD7F147E001209BA751602A9
:1009290020B2147F147E001209BA30B2FD7F147E02
:10093900001209BA75160320B3147F147E00120938
:10094900BA30B3FD7F147E001209BA751604AF16CA
:01095900227B
:0C09CF000A083F065B4F666D7D077F6FD6
:10088C00EF14B4080050549008A175F003A4C5836C
:10089C0025F0C583730208B90208BD0208C102081D
:1008AC00C50208C90208D10208D90208E1D2A48005
:1008BC000ED2A48012D2A48016D2A4801AC2A4D2C2
:1008CC00A3D2A28016C2A4D2A3C2A2800EC2A4C27A
:1008DC00A3D2A28006C2A4C2A3C2A274082DF8E6B9
:0D08EC00F5807F017E001209BAE4F580223C
:1009A3005389F0438901758A9C758CFFC28DD28C63
:0709B300D2A9D2AFC2B922A4
:03000000020800F3
:0C080000787FE4F6D8FD758116020847E9
:10080C00020985E493A3F8E493A34003F68001F274
:10081C0008DFF48029E493A3F85407240CC8C333ED
:10082C00C4540F4420C8834004F456800146F6DFBC
:10083C00E4800B01020408102040809009CFE47E74
:10084C00019360BCA3FF543F30E509541FFEE493B1
:10085C00A360010ECF54C025E060A840B8E493A378
:10086C00FAE493A3F8E493A3C8C582C8CAC583CAA3
:10087C00F0A3C8C582C8CAC583CADFE9DEE780BE5B
:0109DB00001B
:00000001FF
