:0C094B000A083F065B4F666D7D077F6F5A
:04093300EF4E601310
:100937007512027513EFD513FDD512FAEF1F70EC80
:010947001E91
:0309480080E92221
:10088C00EF14B4080050549008A175F003A4C5836C
:10089C0025F0C583730208D90208D10208C90208E1
:1008AC00C50208C10208BD0208B90208E1C2A48051
:1008BC000EC2A48012C2A48016D2A4801AD2A4C2E2
:1008CC00A3D2A28016D2A4D2A3C2A2800ED2A4D24A
:1008DC00A3D2A28006C2A4C2A3C2A274082DF8E6B9
:0D08EC00F5807F017E00120933E4F58022C3
:1008F9007D017C007F0112088C0D7F0212088C0D8E
:100909007F0312088C7F0312088C0D7F0412088C58
:100919000D7F0512088C0D7F0612088C0D7F0712BA
:0A092900088C0D7F0812088C80C6B0
:03000000020800F3
:0C080000787FE4F6D8FD758113020847EC
:10080C000208F9E493A3F8E493A34003F68001F201
:10081C0008DFF48029E493A3F85407240CC8C333ED
:10082C00C4540F4420C8834004F456800146F6DFBC
:10083C00E4800B010204081020408090094BE47EF8
:10084C00019360BCA3FF543F30E509541FFEE493B1
:10085C00A360010ECF54C025E060A840B8E493A378
:10086C00FAE493A3F8E493A3C8C582C8CAC583CAA3
:10087C00F0A3C8C582C8CAC583CADFE9DEE780BE5B
:01095700009F
:00000001FF
