:0C08EB000A083F065B4F666D7D077F6FBB
:10088C00EF14B4080050509008A175F003A4C58370
:10089C0025F0C583730208D50208CD0208C50208ED
:1008AC00C50208C10208BD0208B90208DDC2A48055
:1008BC000AC2A4800EC2A48012D2A4C2A3D2A28067
:1008CC0016D2A4D2A3C2A2800ED2A4D2A3D2A2804A
:0F08DC0006C2A4C2A3C2A274082DF8E6F58022BA
:0B08F8007D037C007F0212088C80FE54
:03000000020800F3
:0C080000787FE4F6D8FD758111020847EE
:10080C000208F8E493A3F8E493A34003F68001F202
:10081C0008DFF48029E493A3F85407240CC8C333ED
:10082C00C4540F4420C8834004F456800146F6DFBC
:10083C00E4800B01020408102040809008EBE47E59
:10084C00019360BCA3FF543F30E509541FFEE493B1
:10085C00A360010ECF54C025E060A840B8E493A378
:10086C00FAE493A3F8E493A3C8C582C8CAC583CAA3
:10087C00F0A3C8C582C8CAC583CADFE9DEE780BE5B
:0108F7000000
:00000001FF
