:10099500120A200526E526700205257FE87E03124A
:1009A50009F2750C03AB26AA257D017F011209D535
:0209B50080E1DF
:060A3400C2A58F80D2A7CD
:080A3A007F027EEFDEFEDFFC0F
:010A42002291
:0A0A4F00C2A6120A34C2A7020A3A36
:1009B700CFCDCFCECCCE12083F7C007D0A12083FA8
:0409C700ED2430FFEC
:0A09CB00D2A6120A34C2A7020A3AAB
:100A0A00AE07BE0104ED148006BE0209ED243F4480
:060A1A0080FF120A4F22CA
:100A20007F38120A4F7F0C120A4F7F06120A4F7F3F
:040A300001020A4F66
:0A0A5900AC03120A0AAF040209CB35
:060972008B228A23892478
:10097800120A0AE4FDAB22AA23A9248D82758300FA
:0C098800120800FF60061209CB0D80E988
:010994002240
:0C093F007F0AEA24FFFDE434FFFC7E0088
:08094B008E0D8F0E8C0F8D1034
:100953007F017E00E4FBEBC39510E50F6480F87420
:0E0963008098500AAC0DAD0E12082D0B80E8E6
:010971002263
:0409D5008A0A8B0BF4
:1009D900120A0AAA0CEAD39400400D12093FAC0A84
:0809E900AD0B1209B71A80EDF5
:0109F10022E3
:10089400120A0AC3EA64809480400B7F2B1209CBAE
:1008A4008A168B17800E7F2D1209CBC3E49BF51794
:1008B400E49AF516AA15EAD39400400D12093FAC48
:0908C40016AD171209B71A80EDF8
:0108CD002208
:0408CE008A1A8B1BDC
:1008D200120A0AAA1CEAD3940040297F1012094185
:1008E200AC1AAD1BCFCDCFCECCCE12083FEF540FFA
:1008F200FEC3940AEE5004243080022437FF12090A
:04090200CB1A80D1BB
:0109060022CE
:040907008A1F8B2098
:10090B00120A0AAA21EAD394004028EA24FFFDE444
:10091B0034FFFC7F027E0012094BAC1FAD20CFCD04
:10092B00CFCECCCE12083FEF54012430FF1209CBAF
:03093B001A80D24D
:01093E002296
:0409F200EF4E601351
:1009F6007508027509EFD509FDD508FAEF1F70ECE9
:010A06001ED1
:030A070080E92261
:03000000020A43AE
:0C0A4300787FE4F6D8FD75812602099545
:10080000BB010CE58229F582E5833AF583E02250AD
:1008100006E92582F8E622BBFE06E92582F8E222F7
:0D082000E58229F582E5833AF583E4932211
:10082D00EF8DF0A4A8F0CF8CF0A428CE8DF0A42EDF
:02083D00FE2299
:10083F00BC000BBE0029EF8DF084FFADF022E4CC9D
:10084F00F875F008EF2FFFEE33FEEC33FCEE9DEC66
:10085F00984005FCEE9DFE0FD5F0E9E4CEFD22EDAC
:10086F00F8F5F0EE8420D21CFEADF075F008EF2FF6
:10087F00FFED33FD4007985006D5F0F222C398FDE7
:05088F000FD5F0EA2284
:00000001FF
