:04085B007F147E0088
:04085F00EF4E6013E5
:100863007508027509EFD509FDD508FAEF1F70EC7D
:010873001E66
:0308740080E922F6
:10080000E4FDFCD2A020B12C12085B30B1FD12082F
:100810005B0DBD00010CC3ED9408EC648094804036
:1008200003E4FCFDAF057401A807088002C333D8B8
:10083000FCF4F5A020B0CE12085B30B1FD12085BCD
:100840007C007D00ED1D70011CAF057401A8070838
:0B0850008002C333D8FCF4F5A080AA9E
:030000000208777C
:0C087700787FE4F6D8FD758109020800C6
:00000001FF
