:02084200AD0700
:10084400E4FB74807E00A803088006CEA2E713CEE2
:1008540013D8F8FFEDF582EF558224FF92B4D2B697
:0A086400C2B60BBB08DCD2B5C2B56A
:01086E002267
:04086F007D557C0037
:10087300AA07AF05120842AF027480A807088002D6
:10088300C313D8FCF4F5807F017E001208957580B0
:02089300FF2242
:100800007DAA7C00E4FF1208737F0112086F7DAAA5
:100810007C007F021208737F0312086F7D557C00F5
:100820007F041208737D557C007F051208737D5587
:100830007C007F061208737D557C007F07120873C9
:0208400080BE78
:04089500EF4E6013AF
:100899007508027509EFD509FDD508FAEF1F70EC47
:0108A9001E30
:0308AA0080E922C0
:030000000208AD46
:0C08AD00787FE4F6D8FD75810902080090
:00000001FF
