:100B7400436C6F636B3A0030303A30303A303000B7
:040BA7000218000030
:10092000120B607BFF7A0B79747D017F01120AC084
:100930007BFF7A0B797B7D017F02120AC0120B4C80
:10094000E51AFB7A00750C027D077F02120B01E5A8
:100950001CFB7A00750C027D047F02120B01E51B63
:0F096000FB7A00750C027D017F02120B0180D122
:03000B0002096F78
:04096F00C0E0C0D054
:10097300758CFC758A170519E51970020518D3944F
:10098300E8E51894034020751800751900051AE569
:100993001AD3943C4011751A00051CE51CD3943CF2
:0709A3004005751C00051B57
:0509AA00D0D0D0E032C6
:040B1E00EF4E601323
:100B22007527027528EFD528FDD527FAEF1F70EC3F
:010B32001EA4
:030B330080E92234
:100B4C00758901C28DD28C758CFC758A17D2A9D28D
:040B5C00AFC2B92249
:100A5A0020B1097F147E00120B1E80FE20B0097F90
:100A6A00147E00120B1E80FE20B2097F147E001233
:100A7A000B1E80FE20B3097F147E00120B1E80FE1F
:020A8A00AF2992
:010A8C002247
:060B8400C2A58F80D2A77C
:080B8A007F027EEFDEFEDFFCBE
:010B92002240
:0A0B9300C2A6120B84C2A7020B8A4F
:100AE300CFCDCFCECCCE12083F7C007D0A12083F7B
:040AF300ED2430FFBF
:0A0AF700D2A6120B84C2A7020B8ADC
:100B3600AE07BE0104ED148006BE0209ED243F4453
:060B460080FF120B932258
:100B60007F38120B937F0C120B937F06120B937F2F
:040B700001020B93E0
:0A0B9D00AC03120B36AF04020AF796
:060AC0008B088A09890A77
:100AC600120B36E4FDAB08AA09A90A8D82758300CC
:0C0AD600120800FF6006120AF70D80E90C
:010AE20022F1
:0C0A8D007F0AEA24FFFDE434FFFC7E0039
:080A99008E0D8F0E8C0F8D10E5
:100AA1007F017E00E4FBEBC39510E50F6480F874D1
:0E0AB1008098500AAC0DAD0E12082D0B80E897
:010ABF002214
:040B01008A0A8B0BC6
:100B0500120B36AA0CEAD39400400D120A8DAC0ADA
:080B1500AD0B120AE31A80ED9A
:010B1D0022B5
:1009AF00120B36C3EA64809480400B7F2B120AF738
:1009BF008A168B17800E7F2D120AF7C3E49BF5174B
:1009CF00E49AF516AA15EAD39400400D120A8DACDD
:0909DF0016AD17120AE31A80EDAF
:0109E80022EC
:0409E9008A1F8B20B6
:1009ED00120B36AA21EAD3940040297F10120A8FE8
:1009FD00AC1FAD20CFCDCFCECCCE12083FEF540FD4
:100A0D00FEC3940AEE5004243080022437FF120AEC
:040A1D00F71A80D173
:010A210022B2
:040A22008A248B2572
:100A2600120B36AA26EAD394004028EA24FFFDE4F6
:100A360034FFFC7F027E00120A99AC24AD25CFCD8F
:100A4600CFCECCCE12083FEF54012430FF120AF766
:030A56001A80D231
:010A5900227A
:030000000208945F
:0C089400787FE4F6D8FD7581290208DBAE
:10080000BB010CE58229F582E5833AF583E02250AD
:1008100006E92582F8E622BBFE06E92582F8E222F7
:0D082000E58229F582E5833AF583E4932211
:10082D00EF8DF0A4A8F0CF8CF0A428CE8DF0A42EDF
:02083D00FE2299
:10083F00BC000BBE0029EF8DF084FFADF022E4CC9D
:10084F00F875F008EF2FFFEE33FEEC33FCEE9DEC66
:10085F00984005FCEE9DFE0FD5F0E9E4CEFD22EDAC
:10086F00F8F5F0EE8420D21CFEADF075F008EF2FF6
:10087F00FFED33FD4007985006D5F0F222C398FDE7
:05088F000FD5F0EA2284
:1008A000020920E493A3F8E493A34003F68001F245
:1008B00008DFF48029E493A3F85407240CC8C33359
:1008C000C4540F4420C8834004F456800146F6DF28
:1008D000E4800B0102040810204080900BA7E47E06
:1008E000019360BCA3FF543F30E509541FFEE4931D
:1008F000A360010ECF54C025E060A840B8E493A3E4
:10090000FAE493A3F8E493A3C8C582C8CAC583CA0E
:10091000F0A3C8C582C8CAC583CADFE9DEE780BEC6
:010BAB000049
:00000001FF
